{
  "_format": "hh-sol-artifact-1",
  "contractName": "Token",
  "sourceName": "contracts/Token.sol",
  "abi": [
    {
      "inputs": [],
      "stateMutability": "nonpayable",
      "type": "constructor"
    },
    {
      "anonymous": false,
      "inputs": [
        {
          "indexed": true,
          "internalType": "address",
          "name": "userAddress",
          "type": "address"
        },
        {
          "indexed": false,
          "internalType": "uint256",
          "name": "taskId",
          "type": "uint256"
        },
        {
          "indexed": false,
          "internalType": "string",
          "name": "title",
          "type": "string"
        },
        {
          "indexed": false,
          "internalType": "string",
          "name": "description",
          "type": "string"
        },
        {
          "indexed": false,
          "internalType": "uint256",
          "name": "reward",
          "type": "uint256"
        }
      ],
      "name": "TaskAdded",
      "type": "event"
    },
    {
      "anonymous": false,
      "inputs": [
        {
          "indexed": true,
          "internalType": "address",
          "name": "userAddress",
          "type": "address"
        },
        {
          "indexed": false,
          "internalType": "uint256",
          "name": "taskId",
          "type": "uint256"
        }
      ],
      "name": "TaskCompleted",
      "type": "event"
    },
    {
      "anonymous": false,
      "inputs": [
        {
          "indexed": true,
          "internalType": "address",
          "name": "_from",
          "type": "address"
        },
        {
          "indexed": true,
          "internalType": "address",
          "name": "_to",
          "type": "address"
        },
        {
          "indexed": false,
          "internalType": "uint256",
          "name": "_value",
          "type": "uint256"
        }
      ],
      "name": "Transfer",
      "type": "event"
    },
    {
      "inputs": [
        {
          "internalType": "string",
          "name": "title",
          "type": "string"
        },
        {
          "internalType": "string",
          "name": "description",
          "type": "string"
        },
        {
          "internalType": "uint256",
          "name": "reward",
          "type": "uint256"
        }
      ],
      "name": "addTask",
      "outputs": [],
      "stateMutability": "nonpayable",
      "type": "function"
    },
    {
      "inputs": [
        {
          "internalType": "address",
          "name": "account",
          "type": "address"
        }
      ],
      "name": "balanceOf",
      "outputs": [
        {
          "internalType": "uint256",
          "name": "",
          "type": "uint256"
        }
      ],
      "stateMutability": "view",
      "type": "function"
    },
    {
      "inputs": [
        {
          "internalType": "uint256",
          "name": "taskId",
          "type": "uint256"
        }
      ],
      "name": "completeTask",
      "outputs": [],
      "stateMutability": "nonpayable",
      "type": "function"
    },
    {
      "inputs": [],
      "name": "name",
      "outputs": [
        {
          "internalType": "string",
          "name": "",
          "type": "string"
        }
      ],
      "stateMutability": "view",
      "type": "function"
    },
    {
      "inputs": [],
      "name": "owner",
      "outputs": [
        {
          "internalType": "address",
          "name": "",
          "type": "address"
        }
      ],
      "stateMutability": "view",
      "type": "function"
    },
    {
      "inputs": [],
      "name": "symbol",
      "outputs": [
        {
          "internalType": "string",
          "name": "",
          "type": "string"
        }
      ],
      "stateMutability": "view",
      "type": "function"
    },
    {
      "inputs": [],
      "name": "totalSupply",
      "outputs": [
        {
          "internalType": "uint256",
          "name": "",
          "type": "uint256"
        }
      ],
      "stateMutability": "view",
      "type": "function"
    },
    {
      "inputs": [
        {
          "internalType": "address",
          "name": "to",
          "type": "address"
        },
        {
          "internalType": "uint256",
          "name": "amount",
          "type": "uint256"
        }
      ],
      "name": "transfer",
      "outputs": [],
      "stateMutability": "nonpayable",
      "type": "function"
    },
    {
      "inputs": [
        {
          "internalType": "address",
          "name": "",
          "type": "address"
        },
        {
          "internalType": "uint256",
          "name": "",
          "type": "uint256"
        }
      ],
      "name": "userTasks",
      "outputs": [
        {
          "internalType": "string",
          "name": "title",
          "type": "string"
        },
        {
          "internalType": "string",
          "name": "description",
          "type": "string"
        },
        {
          "internalType": "uint256",
          "name": "reward",
          "type": "uint256"
        },
        {
          "internalType": "bool",
          "name": "completed",
          "type": "bool"
        },
        {
          "internalType": "uint256",
          "name": "id",
          "type": "uint256"
        }
      ],
      "stateMutability": "view",
      "type": "function"
    }
  ],
  "bytecode": "0x60806040526040518060400160405280601081526020017f4d79204861726468617420546f6b656e00000000000000000000000000000000815250600090816200004a9190620003b3565b506040518060400160405280600381526020017f4d4854000000000000000000000000000000000000000000000000000000000081525060019081620000919190620003b3565b50620f42406002556000600655348015620000ab57600080fd5b50600254600460003373ffffffffffffffffffffffffffffffffffffffff1673ffffffffffffffffffffffffffffffffffffffff1681526020019081526020016000208190555033600360006101000a81548173ffffffffffffffffffffffffffffffffffffffff021916908373ffffffffffffffffffffffffffffffffffffffff1602179055506200049a565b600081519050919050565b7f4e487b7100000000000000000000000000000000000000000000000000000000600052604160045260246000fd5b7f4e487b7100000000000000000000000000000000000000000000000000000000600052602260045260246000fd5b60006002820490506001821680620001bb57607f821691505b602082108103620001d157620001d062000173565b5b50919050565b60008190508160005260206000209050919050565b60006020601f8301049050919050565b600082821b905092915050565b6000600883026200023b7fffffffffffffffffffffffffffffffffffffffffffffffffffffffffffffffff82620001fc565b620002478683620001fc565b95508019841693508086168417925050509392505050565b6000819050919050565b6000819050919050565b6000620002946200028e62000288846200025f565b62000269565b6200025f565b9050919050565b6000819050919050565b620002b08362000273565b620002c8620002bf826200029b565b84845462000209565b825550505050565b600090565b620002df620002d0565b620002ec818484620002a5565b505050565b5b81811015620003145762000308600082620002d5565b600181019050620002f2565b5050565b601f82111562000363576200032d81620001d7565b6200033884620001ec565b8101602085101562000348578190505b620003606200035785620001ec565b830182620002f1565b50505b505050565b600082821c905092915050565b6000620003886000198460080262000368565b1980831691505092915050565b6000620003a3838362000375565b9150826002028217905092915050565b620003be8262000139565b67ffffffffffffffff811115620003da57620003d962000144565b5b620003e68254620001a2565b620003f382828562000318565b600060209050601f8311600181146200042b576000841562000416578287015190505b62000422858262000395565b86555062000492565b601f1984166200043b86620001d7565b60005b8281101562000465578489015182556001820191506020850194506020810190506200043e565b8683101562000485578489015162000481601f89168262000375565b8355505b6001600288020188555050505b505050505050565b61162780620004aa6000396000f3fe608060405234801561001057600080fd5b50600436106100935760003560e01c80637cbc9ae9116100665780637cbc9ae9146101385780638da5cb5b1461015457806395d89b4114610172578063a9059cbb14610190578063e1e29558146101ac57610093565b806306fdde031461009857806318160ddd146100b657806366873a55146100d457806370a0823114610108575b600080fd5b6100a06101c8565b6040516100ad9190610c0a565b60405180910390f35b6100be610256565b6040516100cb9190610c45565b60405180910390f35b6100ee60048036038101906100e99190610cfe565b61025c565b6040516100ff959493929190610d59565b60405180910390f35b610122600480360381019061011d9190610dba565b6103cc565b60405161012f9190610c45565b60405180910390f35b610152600480360381019061014d9190610f1c565b610415565b005b61015c610588565b6040516101699190610fb6565b60405180910390f35b61017a6105ae565b6040516101879190610c0a565b60405180910390f35b6101aa60048036038101906101a59190610cfe565b61063c565b005b6101c660048036038101906101c19190610fd1565b6107f7565b005b600080546101d59061102d565b80601f01602080910402602001604051908101604052809291908181526020018280546102019061102d565b801561024e5780601f106102235761010080835404028352916020019161024e565b820191906000526020600020905b81548152906001019060200180831161023157829003601f168201915b505050505081565b60025481565b6005602052816000526040600020818154811061027857600080fd5b90600052602060002090600502016000915091505080600001805461029c9061102d565b80601f01602080910402602001604051908101604052809291908181526020018280546102c89061102d565b80156103155780601f106102ea57610100808354040283529160200191610315565b820191906000526020600020905b8154815290600101906020018083116102f857829003601f168201915b50505050509080600101805461032a9061102d565b80601f01602080910402602001604051908101604052809291908181526020018280546103569061102d565b80156103a35780601f10610378576101008083540402835291602001916103a3565b820191906000526020600020905b81548152906001019060200180831161038657829003601f168201915b5050505050908060020154908060030160009054906101000a900460ff16908060040154905085565b6000600460008373ffffffffffffffffffffffffffffffffffffffff1673ffffffffffffffffffffffffffffffffffffffff168152602001908152602001600020549050919050565b6000600654905060006040518060a00160405280868152602001858152602001848152602001600015158152602001838152509050600560003373ffffffffffffffffffffffffffffffffffffffff1673ffffffffffffffffffffffffffffffffffffffff16815260200190815260200160002081908060018154018082558091505060019003906000526020600020906005020160009091909190915060008201518160000190816104c8919061120a565b5060208201518160010190816104de919061120a565b506040820151816002015560608201518160030160006101000a81548160ff021916908315150217905550608082015181600401555050600660008154809291906105289061130b565b91905055503373ffffffffffffffffffffffffffffffffffffffff167f0455f19f9104abc4125cbaf9e0bbd4927bcf510f210a037617f098c663fb0de6838787876040516105799493929190611353565b60405180910390a25050505050565b600360009054906101000a900473ffffffffffffffffffffffffffffffffffffffff1681565b600180546105bb9061102d565b80601f01602080910402602001604051908101604052809291908181526020018280546105e79061102d565b80156106345780601f1061060957610100808354040283529160200191610634565b820191906000526020600020905b81548152906001019060200180831161061757829003601f168201915b505050505081565b80600460003373ffffffffffffffffffffffffffffffffffffffff1673ffffffffffffffffffffffffffffffffffffffff1681526020019081526020016000205410156106be576040517f08c379a00000000000000000000000000000000000000000000000000000000081526004016106b5906113f2565b60405180910390fd5b6106e26040518060600160405280602481526020016115ce60249139338484610aaf565b80600460003373ffffffffffffffffffffffffffffffffffffffff1673ffffffffffffffffffffffffffffffffffffffff16815260200190815260200160002060008282546107319190611412565b9250508190555080600460008473ffffffffffffffffffffffffffffffffffffffff1673ffffffffffffffffffffffffffffffffffffffff16815260200190815260200160002060008282546107879190611446565b925050819055508173ffffffffffffffffffffffffffffffffffffffff163373ffffffffffffffffffffffffffffffffffffffff167fddf252ad1be2c89b69c2b068fc378daa952ba7f163c4a11628f55a4df523b3ef836040516107eb9190610c45565b60405180910390a35050565b600560003373ffffffffffffffffffffffffffffffffffffffff1673ffffffffffffffffffffffffffffffffffffffff16815260200190815260200160002080549050811061087b576040517f08c379a0000000000000000000000000000000000000000000000000000000008152600401610872906114c6565b60405180910390fd5b600560003373ffffffffffffffffffffffffffffffffffffffff1673ffffffffffffffffffffffffffffffffffffffff16815260200190815260200160002081815481106108cc576108cb6114e6565b5b906000526020600020906005020160030160009054906101000a900460ff161561092b576040517f08c379a000000000000000000000000000000000000000000000000000000000815260040161092290611561565b60405180910390fd5b6001600560003373ffffffffffffffffffffffffffffffffffffffff1673ffffffffffffffffffffffffffffffffffffffff168152602001908152602001600020828154811061097e5761097d6114e6565b5b906000526020600020906005020160030160006101000a81548160ff021916908315150217905550600560003373ffffffffffffffffffffffffffffffffffffffff1673ffffffffffffffffffffffffffffffffffffffff16815260200190815260200160002081815481106109f7576109f66114e6565b5b906000526020600020906005020160020154600460003373ffffffffffffffffffffffffffffffffffffffff1673ffffffffffffffffffffffffffffffffffffffff1681526020019081526020016000206000828254610a579190611446565b925050819055503373ffffffffffffffffffffffffffffffffffffffff167ff684d89bb0f42287bf32838774e4b7f8a60c11804b3c6d1791fa55f30679264382604051610aa49190610c45565b60405180910390a250565b610b4b84848484604051602401610ac99493929190611581565b6040516020818303038152906040527f8ef3f399000000000000000000000000000000000000000000000000000000007bffffffffffffffffffffffffffffffffffffffffffffffffffffffff19166020820180517bffffffffffffffffffffffffffffffffffffffffffffffffffffffff8381831617835250505050610b51565b50505050565b60008151905060006a636f6e736f6c652e6c6f679050602083016000808483855afa5050505050565b600081519050919050565b600082825260208201905092915050565b60005b83811015610bb4578082015181840152602081019050610b99565b60008484015250505050565b6000601f19601f8301169050919050565b6000610bdc82610b7a565b610be68185610b85565b9350610bf6818560208601610b96565b610bff81610bc0565b840191505092915050565b60006020820190508181036000830152610c248184610bd1565b905092915050565b6000819050919050565b610c3f81610c2c565b82525050565b6000602082019050610c5a6000830184610c36565b92915050565b6000604051905090565b600080fd5b600080fd5b600073ffffffffffffffffffffffffffffffffffffffff82169050919050565b6000610c9f82610c74565b9050919050565b610caf81610c94565b8114610cba57600080fd5b50565b600081359050610ccc81610ca6565b92915050565b610cdb81610c2c565b8114610ce657600080fd5b50565b600081359050610cf881610cd2565b92915050565b60008060408385031215610d1557610d14610c6a565b5b6000610d2385828601610cbd565b9250506020610d3485828601610ce9565b9150509250929050565b60008115159050919050565b610d5381610d3e565b82525050565b600060a0820190508181036000830152610d738188610bd1565b90508181036020830152610d878187610bd1565b9050610d966040830186610c36565b610da36060830185610d4a565b610db06080830184610c36565b9695505050505050565b600060208284031215610dd057610dcf610c6a565b5b6000610dde84828501610cbd565b91505092915050565b600080fd5b600080fd5b7f4e487b7100000000000000000000000000000000000000000000000000000000600052604160045260246000fd5b610e2982610bc0565b810181811067ffffffffffffffff82111715610e4857610e47610df1565b5b80604052505050565b6000610e5b610c60565b9050610e678282610e20565b919050565b600067ffffffffffffffff821115610e8757610e86610df1565b5b610e9082610bc0565b9050602081019050919050565b82818337600083830152505050565b6000610ebf610eba84610e6c565b610e51565b905082815260208101848484011115610edb57610eda610dec565b5b610ee6848285610e9d565b509392505050565b600082601f830112610f0357610f02610de7565b5b8135610f13848260208601610eac565b91505092915050565b600080600060608486031215610f3557610f34610c6a565b5b600084013567ffffffffffffffff811115610f5357610f52610c6f565b5b610f5f86828701610eee565b935050602084013567ffffffffffffffff811115610f8057610f7f610c6f565b5b610f8c86828701610eee565b9250506040610f9d86828701610ce9565b9150509250925092565b610fb081610c94565b82525050565b6000602082019050610fcb6000830184610fa7565b92915050565b600060208284031215610fe757610fe6610c6a565b5b6000610ff584828501610ce9565b91505092915050565b7f4e487b7100000000000000000000000000000000000000000000000000000000600052602260045260246000fd5b6000600282049050600182168061104557607f821691505b60208210810361105857611057610ffe565b5b50919050565b60008190508160005260206000209050919050565b60006020601f8301049050919050565b600082821b905092915050565b6000600883026110c07fffffffffffffffffffffffffffffffffffffffffffffffffffffffffffffffff82611083565b6110ca8683611083565b95508019841693508086168417925050509392505050565b6000819050919050565b60006111076111026110fd84610c2c565b6110e2565b610c2c565b9050919050565b6000819050919050565b611121836110ec565b61113561112d8261110e565b848454611090565b825550505050565b600090565b61114a61113d565b611155818484611118565b505050565b5b818110156111795761116e600082611142565b60018101905061115b565b5050565b601f8211156111be5761118f8161105e565b61119884611073565b810160208510156111a7578190505b6111bb6111b385611073565b83018261115a565b50505b505050565b600082821c905092915050565b60006111e1600019846008026111c3565b1980831691505092915050565b60006111fa83836111d0565b9150826002028217905092915050565b61121382610b7a565b67ffffffffffffffff81111561122c5761122b610df1565b5b611236825461102d565b61124182828561117d565b600060209050601f8311600181146112745760008415611262578287015190505b61126c85826111ee565b8655506112d4565b601f1984166112828661105e565b60005b828110156112aa57848901518255600182019150602085019450602081019050611285565b868310156112c757848901516112c3601f8916826111d0565b8355505b6001600288020188555050505b505050505050565b7f4e487b7100000000000000000000000000000000000000000000000000000000600052601160045260246000fd5b600061131682610c2c565b91507fffffffffffffffffffffffffffffffffffffffffffffffffffffffffffffffff8203611348576113476112dc565b5b600182019050919050565b60006080820190506113686000830187610c36565b818103602083015261137a8186610bd1565b9050818103604083015261138e8185610bd1565b905061139d6060830184610c36565b95945050505050565b7f4e6f7420656e6f75676820746f6b656e73000000000000000000000000000000600082015250565b60006113dc601183610b85565b91506113e7826113a6565b602082019050919050565b6000602082019050818103600083015261140b816113cf565b9050919050565b600061141d82610c2c565b915061142883610c2c565b92508282039050818111156114405761143f6112dc565b5b92915050565b600061145182610c2c565b915061145c83610c2c565b9250828201905080821115611474576114736112dc565b5b92915050565b7f5461736b20646f6573206e6f7420657869737400000000000000000000000000600082015250565b60006114b0601383610b85565b91506114bb8261147a565b602082019050919050565b600060208201905081810360008301526114df816114a3565b9050919050565b7f4e487b7100000000000000000000000000000000000000000000000000000000600052603260045260246000fd5b7f5461736b20616c726561647920636f6d706c6574656400000000000000000000600082015250565b600061154b601683610b85565b915061155682611515565b602082019050919050565b6000602082019050818103600083015261157a8161153e565b9050919050565b6000608082019050818103600083015261159b8187610bd1565b90506115aa6020830186610fa7565b6115b76040830185610fa7565b6115c46060830184610c36565b9594505050505056fe5472616e7366657272696e672066726f6d20257320746f20257320257320746f6b656e73a26469706673582212203f20982ba3677f9d24e526d8658eecf8bf0a99b6a249830d5c575ae3cc36ea5c64736f6c63430008110033",
  "linkReferences": {},
  "deployedLinkReferences": {}
}