{
  "_format": "hh-sol-artifact-1",
  "contractName": "Token",
  "sourceName": "contracts/Token.sol",
  "abi": [
    {
      "inputs": [],
      "stateMutability": "nonpayable",
      "type": "constructor"
    },
    {
      "anonymous": false,
      "inputs": [
        {
          "indexed": true,
          "internalType": "address",
          "name": "userAddress",
          "type": "address"
        },
        {
          "indexed": false,
          "internalType": "uint256",
          "name": "taskId",
          "type": "uint256"
        },
        {
          "indexed": false,
          "internalType": "string",
          "name": "title",
          "type": "string"
        },
        {
          "indexed": false,
          "internalType": "string",
          "name": "description",
          "type": "string"
        },
        {
          "indexed": false,
          "internalType": "uint256",
          "name": "reward",
          "type": "uint256"
        }
      ],
      "name": "TaskAdded",
      "type": "event"
    },
    {
      "anonymous": false,
      "inputs": [
        {
          "indexed": true,
          "internalType": "address",
          "name": "userAddress",
          "type": "address"
        },
        {
          "indexed": false,
          "internalType": "uint256",
          "name": "taskId",
          "type": "uint256"
        }
      ],
      "name": "TaskCompleted",
      "type": "event"
    },
    {
      "anonymous": false,
      "inputs": [
        {
          "indexed": true,
          "internalType": "address",
          "name": "_from",
          "type": "address"
        },
        {
          "indexed": true,
          "internalType": "address",
          "name": "_to",
          "type": "address"
        },
        {
          "indexed": false,
          "internalType": "uint256",
          "name": "_value",
          "type": "uint256"
        }
      ],
      "name": "Transfer",
      "type": "event"
    },
    {
      "inputs": [
        {
          "internalType": "string",
          "name": "title",
          "type": "string"
        },
        {
          "internalType": "string",
          "name": "description",
          "type": "string"
        },
        {
          "internalType": "uint256",
          "name": "reward",
          "type": "uint256"
        }
      ],
      "name": "addTask",
      "outputs": [],
      "stateMutability": "nonpayable",
      "type": "function"
    },
    {
      "inputs": [
        {
          "internalType": "address",
          "name": "account",
          "type": "address"
        }
      ],
      "name": "balanceOf",
      "outputs": [
        {
          "internalType": "uint256",
          "name": "",
          "type": "uint256"
        }
      ],
      "stateMutability": "view",
      "type": "function"
    },
    {
      "inputs": [
        {
          "internalType": "uint256",
          "name": "taskId",
          "type": "uint256"
        }
      ],
      "name": "completeTask",
      "outputs": [],
      "stateMutability": "nonpayable",
      "type": "function"
    },
    {
      "inputs": [],
      "name": "name",
      "outputs": [
        {
          "internalType": "string",
          "name": "",
          "type": "string"
        }
      ],
      "stateMutability": "view",
      "type": "function"
    },
    {
      "inputs": [],
      "name": "owner",
      "outputs": [
        {
          "internalType": "address",
          "name": "",
          "type": "address"
        }
      ],
      "stateMutability": "view",
      "type": "function"
    },
    {
      "inputs": [],
      "name": "symbol",
      "outputs": [
        {
          "internalType": "string",
          "name": "",
          "type": "string"
        }
      ],
      "stateMutability": "view",
      "type": "function"
    },
    {
      "inputs": [],
      "name": "taskIdCounter",
      "outputs": [
        {
          "internalType": "uint256",
          "name": "",
          "type": "uint256"
        }
      ],
      "stateMutability": "view",
      "type": "function"
    },
    {
      "inputs": [],
      "name": "totalSupply",
      "outputs": [
        {
          "internalType": "uint256",
          "name": "",
          "type": "uint256"
        }
      ],
      "stateMutability": "view",
      "type": "function"
    },
    {
      "inputs": [
        {
          "internalType": "address",
          "name": "to",
          "type": "address"
        },
        {
          "internalType": "uint256",
          "name": "amount",
          "type": "uint256"
        }
      ],
      "name": "transfer",
      "outputs": [],
      "stateMutability": "nonpayable",
      "type": "function"
    },
    {
      "inputs": [
        {
          "internalType": "address",
          "name": "",
          "type": "address"
        },
        {
          "internalType": "uint256",
          "name": "",
          "type": "uint256"
        }
      ],
      "name": "userTasks",
      "outputs": [
        {
          "internalType": "string",
          "name": "title",
          "type": "string"
        },
        {
          "internalType": "string",
          "name": "description",
          "type": "string"
        },
        {
          "internalType": "uint256",
          "name": "reward",
          "type": "uint256"
        },
        {
          "internalType": "bool",
          "name": "completed",
          "type": "bool"
        },
        {
          "internalType": "uint256",
          "name": "id",
          "type": "uint256"
        }
      ],
      "stateMutability": "view",
      "type": "function"
    }
  ],
  "bytecode": "0x60806040526040518060400160405280601081526020017f4d79204861726468617420546f6b656e00000000000000000000000000000000815250600090816200004a9190620003b3565b506040518060400160405280600381526020017f4d4854000000000000000000000000000000000000000000000000000000000081525060019081620000919190620003b3565b50620f42406002556000600655348015620000ab57600080fd5b50600254600460003373ffffffffffffffffffffffffffffffffffffffff1673ffffffffffffffffffffffffffffffffffffffff1681526020019081526020016000208190555033600360006101000a81548173ffffffffffffffffffffffffffffffffffffffff021916908373ffffffffffffffffffffffffffffffffffffffff1602179055506200049a565b600081519050919050565b7f4e487b7100000000000000000000000000000000000000000000000000000000600052604160045260246000fd5b7f4e487b7100000000000000000000000000000000000000000000000000000000600052602260045260246000fd5b60006002820490506001821680620001bb57607f821691505b602082108103620001d157620001d062000173565b5b50919050565b60008190508160005260206000209050919050565b60006020601f8301049050919050565b600082821b905092915050565b6000600883026200023b7fffffffffffffffffffffffffffffffffffffffffffffffffffffffffffffffff82620001fc565b620002478683620001fc565b95508019841693508086168417925050509392505050565b6000819050919050565b6000819050919050565b6000620002946200028e62000288846200025f565b62000269565b6200025f565b9050919050565b6000819050919050565b620002b08362000273565b620002c8620002bf826200029b565b84845462000209565b825550505050565b600090565b620002df620002d0565b620002ec818484620002a5565b505050565b5b81811015620003145762000308600082620002d5565b600181019050620002f2565b5050565b601f82111562000363576200032d81620001d7565b6200033884620001ec565b8101602085101562000348578190505b620003606200035785620001ec565b830182620002f1565b50505b505050565b600082821c905092915050565b6000620003886000198460080262000368565b1980831691505092915050565b6000620003a3838362000375565b9150826002028217905092915050565b620003be8262000139565b67ffffffffffffffff811115620003da57620003d962000144565b5b620003e68254620001a2565b620003f382828562000318565b600060209050601f8311600181146200042b576000841562000416578287015190505b62000422858262000395565b86555062000492565b601f1984166200043b86620001d7565b60005b8281101562000465578489015182556001820191506020850194506020810190506200043e565b8683101562000485578489015162000481601f89168262000375565b8355505b6001600288020188555050505b505050505050565b6116d080620004aa6000396000f3fe608060405234801561001057600080fd5b506004361061009e5760003560e01c80638da5cb5b116100665780638da5cb5b1461015f57806395d89b411461017d578063a9059cbb1461019b578063ad8ef91c146101b7578063e1e29558146101d55761009e565b806306fdde03146100a357806318160ddd146100c157806366873a55146100df57806370a08231146101135780637cbc9ae914610143575b600080fd5b6100ab6101f1565b6040516100b89190610c8d565b60405180910390f35b6100c961027f565b6040516100d69190610cc8565b60405180910390f35b6100f960048036038101906100f49190610d81565b610285565b60405161010a959493929190610ddc565b60405180910390f35b61012d60048036038101906101289190610e3d565b6103f5565b60405161013a9190610cc8565b60405180910390f35b61015d60048036038101906101589190610f9f565b61043e565b005b610167610689565b6040516101749190611039565b60405180910390f35b6101856106af565b6040516101929190610c8d565b60405180910390f35b6101b560048036038101906101b09190610d81565b61073d565b005b6101bf6108f8565b6040516101cc9190610cc8565b60405180910390f35b6101ef60048036038101906101ea9190611054565b6108fe565b005b600080546101fe906110b0565b80601f016020809104026020016040519081016040528092919081815260200182805461022a906110b0565b80156102775780601f1061024c57610100808354040283529160200191610277565b820191906000526020600020905b81548152906001019060200180831161025a57829003601f168201915b505050505081565b60025481565b600560205281600052604060002081815481106102a157600080fd5b9060005260206000209060050201600091509150508060000180546102c5906110b0565b80601f01602080910402602001604051908101604052809291908181526020018280546102f1906110b0565b801561033e5780601f106103135761010080835404028352916020019161033e565b820191906000526020600020905b81548152906001019060200180831161032157829003601f168201915b505050505090806001018054610353906110b0565b80601f016020809104026020016040519081016040528092919081815260200182805461037f906110b0565b80156103cc5780601f106103a1576101008083540402835291602001916103cc565b820191906000526020600020905b8154815290600101906020018083116103af57829003601f168201915b5050505050908060020154908060030160009054906101000a900460ff16908060040154905085565b6000600460008373ffffffffffffffffffffffffffffffffffffffff1673ffffffffffffffffffffffffffffffffffffffff168152602001908152602001600020549050919050565b80600460003373ffffffffffffffffffffffffffffffffffffffff1673ffffffffffffffffffffffffffffffffffffffff1681526020019081526020016000205410156104c0576040517f08c379a00000000000000000000000000000000000000000000000000000000081526004016104b790611153565b60405180910390fd5b80600460003373ffffffffffffffffffffffffffffffffffffffff1673ffffffffffffffffffffffffffffffffffffffff168152602001908152602001600020600082825461050f91906111a2565b925050819055506000600654905060006040518060a00160405280868152602001858152602001848152602001600015158152602001838152509050600560003373ffffffffffffffffffffffffffffffffffffffff1673ffffffffffffffffffffffffffffffffffffffff16815260200190815260200160002081908060018154018082558091505060019003906000526020600020906005020160009091909190915060008201518160000190816105c99190611382565b5060208201518160010190816105df9190611382565b506040820151816002015560608201518160030160006101000a81548160ff0219169083151502179055506080820151816004015550506006600081548092919061062990611454565b91905055503373ffffffffffffffffffffffffffffffffffffffff167f0455f19f9104abc4125cbaf9e0bbd4927bcf510f210a037617f098c663fb0de68387878760405161067a949392919061149c565b60405180910390a25050505050565b600360009054906101000a900473ffffffffffffffffffffffffffffffffffffffff1681565b600180546106bc906110b0565b80601f01602080910402602001604051908101604052809291908181526020018280546106e8906110b0565b80156107355780601f1061070a57610100808354040283529160200191610735565b820191906000526020600020905b81548152906001019060200180831161071857829003601f168201915b505050505081565b80600460003373ffffffffffffffffffffffffffffffffffffffff1673ffffffffffffffffffffffffffffffffffffffff1681526020019081526020016000205410156107bf576040517f08c379a00000000000000000000000000000000000000000000000000000000081526004016107b69061153b565b60405180910390fd5b6107e360405180606001604052806024815260200161167760249139338484610b32565b80600460003373ffffffffffffffffffffffffffffffffffffffff1673ffffffffffffffffffffffffffffffffffffffff168152602001908152602001600020600082825461083291906111a2565b9250508190555080600460008473ffffffffffffffffffffffffffffffffffffffff1673ffffffffffffffffffffffffffffffffffffffff1681526020019081526020016000206000828254610888919061155b565b925050819055508173ffffffffffffffffffffffffffffffffffffffff163373ffffffffffffffffffffffffffffffffffffffff167fddf252ad1be2c89b69c2b068fc378daa952ba7f163c4a11628f55a4df523b3ef836040516108ec9190610cc8565b60405180910390a35050565b60065481565b600560003373ffffffffffffffffffffffffffffffffffffffff1673ffffffffffffffffffffffffffffffffffffffff168152602001908152602001600020818154811061094f5761094e61158f565b5b906000526020600020906005020160030160009054906101000a900460ff16156109ae576040517f08c379a00000000000000000000000000000000000000000000000000000000081526004016109a59061160a565b60405180910390fd5b6001600560003373ffffffffffffffffffffffffffffffffffffffff1673ffffffffffffffffffffffffffffffffffffffff1681526020019081526020016000208281548110610a0157610a0061158f565b5b906000526020600020906005020160030160006101000a81548160ff021916908315150217905550600560003373ffffffffffffffffffffffffffffffffffffffff1673ffffffffffffffffffffffffffffffffffffffff1681526020019081526020016000208181548110610a7a57610a7961158f565b5b906000526020600020906005020160020154600460003373ffffffffffffffffffffffffffffffffffffffff1673ffffffffffffffffffffffffffffffffffffffff1681526020019081526020016000206000828254610ada919061155b565b925050819055503373ffffffffffffffffffffffffffffffffffffffff167ff684d89bb0f42287bf32838774e4b7f8a60c11804b3c6d1791fa55f30679264382604051610b279190610cc8565b60405180910390a250565b610bce84848484604051602401610b4c949392919061162a565b6040516020818303038152906040527f8ef3f399000000000000000000000000000000000000000000000000000000007bffffffffffffffffffffffffffffffffffffffffffffffffffffffff19166020820180517bffffffffffffffffffffffffffffffffffffffffffffffffffffffff8381831617835250505050610bd4565b50505050565b60008151905060006a636f6e736f6c652e6c6f679050602083016000808483855afa5050505050565b600081519050919050565b600082825260208201905092915050565b60005b83811015610c37578082015181840152602081019050610c1c565b60008484015250505050565b6000601f19601f8301169050919050565b6000610c5f82610bfd565b610c698185610c08565b9350610c79818560208601610c19565b610c8281610c43565b840191505092915050565b60006020820190508181036000830152610ca78184610c54565b905092915050565b6000819050919050565b610cc281610caf565b82525050565b6000602082019050610cdd6000830184610cb9565b92915050565b6000604051905090565b600080fd5b600080fd5b600073ffffffffffffffffffffffffffffffffffffffff82169050919050565b6000610d2282610cf7565b9050919050565b610d3281610d17565b8114610d3d57600080fd5b50565b600081359050610d4f81610d29565b92915050565b610d5e81610caf565b8114610d6957600080fd5b50565b600081359050610d7b81610d55565b92915050565b60008060408385031215610d9857610d97610ced565b5b6000610da685828601610d40565b9250506020610db785828601610d6c565b9150509250929050565b60008115159050919050565b610dd681610dc1565b82525050565b600060a0820190508181036000830152610df68188610c54565b90508181036020830152610e0a8187610c54565b9050610e196040830186610cb9565b610e266060830185610dcd565b610e336080830184610cb9565b9695505050505050565b600060208284031215610e5357610e52610ced565b5b6000610e6184828501610d40565b91505092915050565b600080fd5b600080fd5b7f4e487b7100000000000000000000000000000000000000000000000000000000600052604160045260246000fd5b610eac82610c43565b810181811067ffffffffffffffff82111715610ecb57610eca610e74565b5b80604052505050565b6000610ede610ce3565b9050610eea8282610ea3565b919050565b600067ffffffffffffffff821115610f0a57610f09610e74565b5b610f1382610c43565b9050602081019050919050565b82818337600083830152505050565b6000610f42610f3d84610eef565b610ed4565b905082815260208101848484011115610f5e57610f5d610e6f565b5b610f69848285610f20565b509392505050565b600082601f830112610f8657610f85610e6a565b5b8135610f96848260208601610f2f565b91505092915050565b600080600060608486031215610fb857610fb7610ced565b5b600084013567ffffffffffffffff811115610fd657610fd5610cf2565b5b610fe286828701610f71565b935050602084013567ffffffffffffffff81111561100357611002610cf2565b5b61100f86828701610f71565b925050604061102086828701610d6c565b9150509250925092565b61103381610d17565b82525050565b600060208201905061104e600083018461102a565b92915050565b60006020828403121561106a57611069610ced565b5b600061107884828501610d6c565b91505092915050565b7f4e487b7100000000000000000000000000000000000000000000000000000000600052602260045260246000fd5b600060028204905060018216806110c857607f821691505b6020821081036110db576110da611081565b5b50919050565b7f4e6f7420656e6f75676820746f6b656e7320746f20736574206173206120726560008201527f7761726400000000000000000000000000000000000000000000000000000000602082015250565b600061113d602483610c08565b9150611148826110e1565b604082019050919050565b6000602082019050818103600083015261116c81611130565b9050919050565b7f4e487b7100000000000000000000000000000000000000000000000000000000600052601160045260246000fd5b60006111ad82610caf565b91506111b883610caf565b92508282039050818111156111d0576111cf611173565b5b92915050565b60008190508160005260206000209050919050565b60006020601f8301049050919050565b600082821b905092915050565b6000600883026112387fffffffffffffffffffffffffffffffffffffffffffffffffffffffffffffffff826111fb565b61124286836111fb565b95508019841693508086168417925050509392505050565b6000819050919050565b600061127f61127a61127584610caf565b61125a565b610caf565b9050919050565b6000819050919050565b61129983611264565b6112ad6112a582611286565b848454611208565b825550505050565b600090565b6112c26112b5565b6112cd818484611290565b505050565b5b818110156112f1576112e66000826112ba565b6001810190506112d3565b5050565b601f82111561133657611307816111d6565b611310846111eb565b8101602085101561131f578190505b61133361132b856111eb565b8301826112d2565b50505b505050565b600082821c905092915050565b60006113596000198460080261133b565b1980831691505092915050565b60006113728383611348565b9150826002028217905092915050565b61138b82610bfd565b67ffffffffffffffff8111156113a4576113a3610e74565b5b6113ae82546110b0565b6113b98282856112f5565b600060209050601f8311600181146113ec57600084156113da578287015190505b6113e48582611366565b86555061144c565b601f1984166113fa866111d6565b60005b82811015611422578489015182556001820191506020850194506020810190506113fd565b8683101561143f578489015161143b601f891682611348565b8355505b6001600288020188555050505b505050505050565b600061145f82610caf565b91507fffffffffffffffffffffffffffffffffffffffffffffffffffffffffffffffff820361149157611490611173565b5b600182019050919050565b60006080820190506114b16000830187610cb9565b81810360208301526114c38186610c54565b905081810360408301526114d78185610c54565b90506114e66060830184610cb9565b95945050505050565b7f4e6f7420656e6f75676820746f6b656e73000000000000000000000000000000600082015250565b6000611525601183610c08565b9150611530826114ef565b602082019050919050565b6000602082019050818103600083015261155481611518565b9050919050565b600061156682610caf565b915061157183610caf565b925082820190508082111561158957611588611173565b5b92915050565b7f4e487b7100000000000000000000000000000000000000000000000000000000600052603260045260246000fd5b7f5461736b20616c726561647920636f6d706c6574656400000000000000000000600082015250565b60006115f4601683610c08565b91506115ff826115be565b602082019050919050565b60006020820190508181036000830152611623816115e7565b9050919050565b600060808201905081810360008301526116448187610c54565b9050611653602083018661102a565b611660604083018561102a565b61166d6060830184610cb9565b9594505050505056fe5472616e7366657272696e672066726f6d20257320746f20257320257320746f6b656e73a2646970667358221220775d6d725da41bbf3d703ca0a85762e799f98b6df02dab9bb8c981c734e0dfa564736f6c63430008110033",
  "linkReferences": {},
  "deployedLinkReferences": {}
}