{
  "_format": "hh-sol-artifact-1",
  "contractName": "Token",
  "sourceName": "contracts/Token.sol",
  "abi": [
    {
      "inputs": [],
      "stateMutability": "nonpayable",
      "type": "constructor"
    },
    {
      "anonymous": false,
      "inputs": [
        {
          "indexed": true,
          "internalType": "address",
          "name": "user",
          "type": "address"
        },
        {
          "indexed": false,
          "internalType": "uint256",
          "name": "taskId",
          "type": "uint256"
        },
        {
          "indexed": false,
          "internalType": "string",
          "name": "title",
          "type": "string"
        }
      ],
      "name": "TaskAdded",
      "type": "event"
    },
    {
      "anonymous": false,
      "inputs": [
        {
          "indexed": true,
          "internalType": "address",
          "name": "user",
          "type": "address"
        },
        {
          "indexed": false,
          "internalType": "uint256",
          "name": "taskId",
          "type": "uint256"
        }
      ],
      "name": "TaskCompleted",
      "type": "event"
    },
    {
      "anonymous": false,
      "inputs": [
        {
          "indexed": true,
          "internalType": "address",
          "name": "_from",
          "type": "address"
        },
        {
          "indexed": true,
          "internalType": "address",
          "name": "_to",
          "type": "address"
        },
        {
          "indexed": false,
          "internalType": "uint256",
          "name": "_value",
          "type": "uint256"
        }
      ],
      "name": "Transfer",
      "type": "event"
    },
    {
      "inputs": [
        {
          "internalType": "string",
          "name": "title",
          "type": "string"
        },
        {
          "internalType": "string",
          "name": "description",
          "type": "string"
        }
      ],
      "name": "addTask",
      "outputs": [],
      "stateMutability": "nonpayable",
      "type": "function"
    },
    {
      "inputs": [
        {
          "internalType": "address",
          "name": "account",
          "type": "address"
        }
      ],
      "name": "balanceOf",
      "outputs": [
        {
          "internalType": "uint256",
          "name": "",
          "type": "uint256"
        }
      ],
      "stateMutability": "view",
      "type": "function"
    },
    {
      "inputs": [
        {
          "internalType": "uint256",
          "name": "taskId",
          "type": "uint256"
        }
      ],
      "name": "completeTask",
      "outputs": [],
      "stateMutability": "nonpayable",
      "type": "function"
    },
    {
      "inputs": [],
      "name": "name",
      "outputs": [
        {
          "internalType": "string",
          "name": "",
          "type": "string"
        }
      ],
      "stateMutability": "view",
      "type": "function"
    },
    {
      "inputs": [],
      "name": "owner",
      "outputs": [
        {
          "internalType": "address",
          "name": "",
          "type": "address"
        }
      ],
      "stateMutability": "view",
      "type": "function"
    },
    {
      "inputs": [],
      "name": "symbol",
      "outputs": [
        {
          "internalType": "string",
          "name": "",
          "type": "string"
        }
      ],
      "stateMutability": "view",
      "type": "function"
    },
    {
      "inputs": [],
      "name": "totalSupply",
      "outputs": [
        {
          "internalType": "uint256",
          "name": "",
          "type": "uint256"
        }
      ],
      "stateMutability": "view",
      "type": "function"
    },
    {
      "inputs": [
        {
          "internalType": "address",
          "name": "to",
          "type": "address"
        },
        {
          "internalType": "uint256",
          "name": "amount",
          "type": "uint256"
        }
      ],
      "name": "transfer",
      "outputs": [],
      "stateMutability": "nonpayable",
      "type": "function"
    },
    {
      "inputs": [
        {
          "internalType": "address",
          "name": "",
          "type": "address"
        },
        {
          "internalType": "uint256",
          "name": "",
          "type": "uint256"
        }
      ],
      "name": "userTasks",
      "outputs": [
        {
          "internalType": "string",
          "name": "title",
          "type": "string"
        },
        {
          "internalType": "string",
          "name": "description",
          "type": "string"
        },
        {
          "internalType": "uint256",
          "name": "reward",
          "type": "uint256"
        },
        {
          "internalType": "bool",
          "name": "completed",
          "type": "bool"
        },
        {
          "internalType": "uint256",
          "name": "id",
          "type": "uint256"
        }
      ],
      "stateMutability": "view",
      "type": "function"
    }
  ],
  "bytecode": "0x60806040526040518060400160405280601081526020017f4d79204861726468617420546f6b656e00000000000000000000000000000000815250600090816200004a9190620003b3565b506040518060400160405280600381526020017f4d4854000000000000000000000000000000000000000000000000000000000081525060019081620000919190620003b3565b50620f42406002556000600655348015620000ab57600080fd5b50600254600460003373ffffffffffffffffffffffffffffffffffffffff1673ffffffffffffffffffffffffffffffffffffffff1681526020019081526020016000208190555033600360006101000a81548173ffffffffffffffffffffffffffffffffffffffff021916908373ffffffffffffffffffffffffffffffffffffffff1602179055506200049a565b600081519050919050565b7f4e487b7100000000000000000000000000000000000000000000000000000000600052604160045260246000fd5b7f4e487b7100000000000000000000000000000000000000000000000000000000600052602260045260246000fd5b60006002820490506001821680620001bb57607f821691505b602082108103620001d157620001d062000173565b5b50919050565b60008190508160005260206000209050919050565b60006020601f8301049050919050565b600082821b905092915050565b6000600883026200023b7fffffffffffffffffffffffffffffffffffffffffffffffffffffffffffffffff82620001fc565b620002478683620001fc565b95508019841693508086168417925050509392505050565b6000819050919050565b6000819050919050565b6000620002946200028e62000288846200025f565b62000269565b6200025f565b9050919050565b6000819050919050565b620002b08362000273565b620002c8620002bf826200029b565b84845462000209565b825550505050565b600090565b620002df620002d0565b620002ec818484620002a5565b505050565b5b81811015620003145762000308600082620002d5565b600181019050620002f2565b5050565b601f82111562000363576200032d81620001d7565b6200033884620001ec565b8101602085101562000348578190505b620003606200035785620001ec565b830182620002f1565b50505b505050565b600082821c905092915050565b6000620003886000198460080262000368565b1980831691505092915050565b6000620003a3838362000375565b9150826002028217905092915050565b620003be8262000139565b67ffffffffffffffff811115620003da57620003d962000144565b5b620003e68254620001a2565b620003f382828562000318565b600060209050601f8311600181146200042b576000841562000416578287015190505b62000422858262000395565b86555062000492565b601f1984166200043b86620001d7565b60005b8281101562000465578489015182556001820191506020850194506020810190506200043e565b8683101562000485578489015162000481601f89168262000375565b8355505b6001600288020188555050505b505050505050565b6115e980620004aa6000396000f3fe608060405234801561001057600080fd5b50600436106100935760003560e01c80638da5cb5b116100665780638da5cb5b1461013857806395d89b4114610156578063a9059cbb14610174578063b37b100014610190578063e1e29558146101ac57610093565b806306fdde031461009857806318160ddd146100b657806366873a55146100d457806370a0823114610108575b600080fd5b6100a06101c8565b6040516100ad9190610c02565b60405180910390f35b6100be610256565b6040516100cb9190610c3d565b60405180910390f35b6100ee60048036038101906100e99190610cf6565b61025c565b6040516100ff959493929190610d51565b60405180910390f35b610122600480360381019061011d9190610db2565b6103cc565b60405161012f9190610c3d565b60405180910390f35b610140610415565b60405161014d9190610dee565b60405180910390f35b61015e61043b565b60405161016b9190610c02565b60405180910390f35b61018e60048036038101906101899190610cf6565b6104c9565b005b6101aa60048036038101906101a59190610f3e565b610684565b005b6101c660048036038101906101c19190610fb6565b6107ef565b005b600080546101d590611012565b80601f016020809104026020016040519081016040528092919081815260200182805461020190611012565b801561024e5780601f106102235761010080835404028352916020019161024e565b820191906000526020600020905b81548152906001019060200180831161023157829003601f168201915b505050505081565b60025481565b6005602052816000526040600020818154811061027857600080fd5b90600052602060002090600502016000915091505080600001805461029c90611012565b80601f01602080910402602001604051908101604052809291908181526020018280546102c890611012565b80156103155780601f106102ea57610100808354040283529160200191610315565b820191906000526020600020905b8154815290600101906020018083116102f857829003601f168201915b50505050509080600101805461032a90611012565b80601f016020809104026020016040519081016040528092919081815260200182805461035690611012565b80156103a35780601f10610378576101008083540402835291602001916103a3565b820191906000526020600020905b81548152906001019060200180831161038657829003601f168201915b5050505050908060020154908060030160009054906101000a900460ff16908060040154905085565b6000600460008373ffffffffffffffffffffffffffffffffffffffff1673ffffffffffffffffffffffffffffffffffffffff168152602001908152602001600020549050919050565b600360009054906101000a900473ffffffffffffffffffffffffffffffffffffffff1681565b6001805461044890611012565b80601f016020809104026020016040519081016040528092919081815260200182805461047490611012565b80156104c15780601f10610496576101008083540402835291602001916104c1565b820191906000526020600020905b8154815290600101906020018083116104a457829003601f168201915b505050505081565b80600460003373ffffffffffffffffffffffffffffffffffffffff1673ffffffffffffffffffffffffffffffffffffffff16815260200190815260200160002054101561054b576040517f08c379a00000000000000000000000000000000000000000000000000000000081526004016105429061108f565b60405180910390fd5b61056f60405180606001604052806024815260200161159060249139338484610aa7565b80600460003373ffffffffffffffffffffffffffffffffffffffff1673ffffffffffffffffffffffffffffffffffffffff16815260200190815260200160002060008282546105be91906110de565b9250508190555080600460008473ffffffffffffffffffffffffffffffffffffffff1673ffffffffffffffffffffffffffffffffffffffff16815260200190815260200160002060008282546106149190611112565b925050819055508173ffffffffffffffffffffffffffffffffffffffff163373ffffffffffffffffffffffffffffffffffffffff167fddf252ad1be2c89b69c2b068fc378daa952ba7f163c4a11628f55a4df523b3ef836040516106789190610c3d565b60405180910390a35050565b60006040518060a00160405280848152602001838152602001600181526020016000151581526020016006548152509050600560003373ffffffffffffffffffffffffffffffffffffffff1673ffffffffffffffffffffffffffffffffffffffff168152602001908152602001600020819080600181540180825580915050600190039060005260206000209060050201600090919091909150600082015181600001908161073391906112f2565b50602082015181600101908161074991906112f2565b506040820151816002015560608201518160030160006101000a81548160ff02191690831515021790555060808201518160040155505060066000815480929190610793906113c4565b91905055503373ffffffffffffffffffffffffffffffffffffffff167f793f49aab3b9e0d3125d745773b78ac45236f2beeed7c6296e60911e17a0de42600654856040516107e292919061140c565b60405180910390a2505050565b600560003373ffffffffffffffffffffffffffffffffffffffff1673ffffffffffffffffffffffffffffffffffffffff168152602001908152602001600020805490508110610873576040517f08c379a000000000000000000000000000000000000000000000000000000000815260040161086a90611488565b60405180910390fd5b600560003373ffffffffffffffffffffffffffffffffffffffff1673ffffffffffffffffffffffffffffffffffffffff16815260200190815260200160002081815481106108c4576108c36114a8565b5b906000526020600020906005020160030160009054906101000a900460ff1615610923576040517f08c379a000000000000000000000000000000000000000000000000000000000815260040161091a90611523565b60405180910390fd5b6001600560003373ffffffffffffffffffffffffffffffffffffffff1673ffffffffffffffffffffffffffffffffffffffff1681526020019081526020016000208281548110610976576109756114a8565b5b906000526020600020906005020160030160006101000a81548160ff021916908315150217905550600560003373ffffffffffffffffffffffffffffffffffffffff1673ffffffffffffffffffffffffffffffffffffffff16815260200190815260200160002081815481106109ef576109ee6114a8565b5b906000526020600020906005020160020154600460003373ffffffffffffffffffffffffffffffffffffffff1673ffffffffffffffffffffffffffffffffffffffff1681526020019081526020016000206000828254610a4f9190611112565b925050819055503373ffffffffffffffffffffffffffffffffffffffff167ff684d89bb0f42287bf32838774e4b7f8a60c11804b3c6d1791fa55f30679264382604051610a9c9190610c3d565b60405180910390a250565b610b4384848484604051602401610ac19493929190611543565b6040516020818303038152906040527f8ef3f399000000000000000000000000000000000000000000000000000000007bffffffffffffffffffffffffffffffffffffffffffffffffffffffff19166020820180517bffffffffffffffffffffffffffffffffffffffffffffffffffffffff8381831617835250505050610b49565b50505050565b60008151905060006a636f6e736f6c652e6c6f679050602083016000808483855afa5050505050565b600081519050919050565b600082825260208201905092915050565b60005b83811015610bac578082015181840152602081019050610b91565b60008484015250505050565b6000601f19601f8301169050919050565b6000610bd482610b72565b610bde8185610b7d565b9350610bee818560208601610b8e565b610bf781610bb8565b840191505092915050565b60006020820190508181036000830152610c1c8184610bc9565b905092915050565b6000819050919050565b610c3781610c24565b82525050565b6000602082019050610c526000830184610c2e565b92915050565b6000604051905090565b600080fd5b600080fd5b600073ffffffffffffffffffffffffffffffffffffffff82169050919050565b6000610c9782610c6c565b9050919050565b610ca781610c8c565b8114610cb257600080fd5b50565b600081359050610cc481610c9e565b92915050565b610cd381610c24565b8114610cde57600080fd5b50565b600081359050610cf081610cca565b92915050565b60008060408385031215610d0d57610d0c610c62565b5b6000610d1b85828601610cb5565b9250506020610d2c85828601610ce1565b9150509250929050565b60008115159050919050565b610d4b81610d36565b82525050565b600060a0820190508181036000830152610d6b8188610bc9565b90508181036020830152610d7f8187610bc9565b9050610d8e6040830186610c2e565b610d9b6060830185610d42565b610da86080830184610c2e565b9695505050505050565b600060208284031215610dc857610dc7610c62565b5b6000610dd684828501610cb5565b91505092915050565b610de881610c8c565b82525050565b6000602082019050610e036000830184610ddf565b92915050565b600080fd5b600080fd5b7f4e487b7100000000000000000000000000000000000000000000000000000000600052604160045260246000fd5b610e4b82610bb8565b810181811067ffffffffffffffff82111715610e6a57610e69610e13565b5b80604052505050565b6000610e7d610c58565b9050610e898282610e42565b919050565b600067ffffffffffffffff821115610ea957610ea8610e13565b5b610eb282610bb8565b9050602081019050919050565b82818337600083830152505050565b6000610ee1610edc84610e8e565b610e73565b905082815260208101848484011115610efd57610efc610e0e565b5b610f08848285610ebf565b509392505050565b600082601f830112610f2557610f24610e09565b5b8135610f35848260208601610ece565b91505092915050565b60008060408385031215610f5557610f54610c62565b5b600083013567ffffffffffffffff811115610f7357610f72610c67565b5b610f7f85828601610f10565b925050602083013567ffffffffffffffff811115610fa057610f9f610c67565b5b610fac85828601610f10565b9150509250929050565b600060208284031215610fcc57610fcb610c62565b5b6000610fda84828501610ce1565b91505092915050565b7f4e487b7100000000000000000000000000000000000000000000000000000000600052602260045260246000fd5b6000600282049050600182168061102a57607f821691505b60208210810361103d5761103c610fe3565b5b50919050565b7f4e6f7420656e6f75676820746f6b656e73000000000000000000000000000000600082015250565b6000611079601183610b7d565b915061108482611043565b602082019050919050565b600060208201905081810360008301526110a88161106c565b9050919050565b7f4e487b7100000000000000000000000000000000000000000000000000000000600052601160045260246000fd5b60006110e982610c24565b91506110f483610c24565b925082820390508181111561110c5761110b6110af565b5b92915050565b600061111d82610c24565b915061112883610c24565b92508282019050808211156111405761113f6110af565b5b92915050565b60008190508160005260206000209050919050565b60006020601f8301049050919050565b600082821b905092915050565b6000600883026111a87fffffffffffffffffffffffffffffffffffffffffffffffffffffffffffffffff8261116b565b6111b2868361116b565b95508019841693508086168417925050509392505050565b6000819050919050565b60006111ef6111ea6111e584610c24565b6111ca565b610c24565b9050919050565b6000819050919050565b611209836111d4565b61121d611215826111f6565b848454611178565b825550505050565b600090565b611232611225565b61123d818484611200565b505050565b5b818110156112615761125660008261122a565b600181019050611243565b5050565b601f8211156112a65761127781611146565b6112808461115b565b8101602085101561128f578190505b6112a361129b8561115b565b830182611242565b50505b505050565b600082821c905092915050565b60006112c9600019846008026112ab565b1980831691505092915050565b60006112e283836112b8565b9150826002028217905092915050565b6112fb82610b72565b67ffffffffffffffff81111561131457611313610e13565b5b61131e8254611012565b611329828285611265565b600060209050601f83116001811461135c576000841561134a578287015190505b61135485826112d6565b8655506113bc565b601f19841661136a86611146565b60005b828110156113925784890151825560018201915060208501945060208101905061136d565b868310156113af57848901516113ab601f8916826112b8565b8355505b6001600288020188555050505b505050505050565b60006113cf82610c24565b91507fffffffffffffffffffffffffffffffffffffffffffffffffffffffffffffffff8203611401576114006110af565b5b600182019050919050565b60006040820190506114216000830185610c2e565b81810360208301526114338184610bc9565b90509392505050565b7f5461736b20646f6573206e6f7420657869737400000000000000000000000000600082015250565b6000611472601383610b7d565b915061147d8261143c565b602082019050919050565b600060208201905081810360008301526114a181611465565b9050919050565b7f4e487b7100000000000000000000000000000000000000000000000000000000600052603260045260246000fd5b7f5461736b20616c726561647920636f6d706c6574656400000000000000000000600082015250565b600061150d601683610b7d565b9150611518826114d7565b602082019050919050565b6000602082019050818103600083015261153c81611500565b9050919050565b6000608082019050818103600083015261155d8187610bc9565b905061156c6020830186610ddf565b6115796040830185610ddf565b6115866060830184610c2e565b9594505050505056fe5472616e7366657272696e672066726f6d20257320746f20257320257320746f6b656e73a2646970667358221220862e0972a896d59ef93a2b09ff77b62847067000151c141c4d895ccf812dbee164736f6c63430008110033",
  "linkReferences": {},
  "deployedLinkReferences": {}
}