{
  "_format": "hh-sol-artifact-1",
  "contractName": "Airdrop",
  "sourceName": "contracts/AirDrop.sol",
  "abi": [
    {
      "inputs": [
        {
          "internalType": "address",
          "name": "tokenAddress",
          "type": "address"
        }
      ],
      "stateMutability": "nonpayable",
      "type": "constructor"
    },
    {
      "inputs": [
        {
          "internalType": "address[]",
          "name": "recipients",
          "type": "address[]"
        },
        {
          "internalType": "uint256",
          "name": "amount",
          "type": "uint256"
        }
      ],
      "name": "distributeTokens",
      "outputs": [],
      "stateMutability": "nonpayable",
      "type": "function"
    },
    {
      "inputs": [],
      "name": "owner",
      "outputs": [
        {
          "internalType": "address",
          "name": "",
          "type": "address"
        }
      ],
      "stateMutability": "view",
      "type": "function"
    },
    {
      "inputs": [],
      "name": "token",
      "outputs": [
        {
          "internalType": "contract IERC20",
          "name": "",
          "type": "address"
        }
      ],
      "stateMutability": "view",
      "type": "function"
    }
  ],
  "bytecode": "0x608060405234801561001057600080fd5b506040516107e73803806107e78339818101604052810190610032919061011c565b336000806101000a81548173ffffffffffffffffffffffffffffffffffffffff021916908373ffffffffffffffffffffffffffffffffffffffff16021790555080600160006101000a81548173ffffffffffffffffffffffffffffffffffffffff021916908373ffffffffffffffffffffffffffffffffffffffff16021790555050610149565b600080fd5b600073ffffffffffffffffffffffffffffffffffffffff82169050919050565b60006100e9826100be565b9050919050565b6100f9816100de565b811461010457600080fd5b50565b600081519050610116816100f0565b92915050565b600060208284031215610132576101316100b9565b5b600061014084828501610107565b91505092915050565b61068f806101586000396000f3fe608060405234801561001057600080fd5b50600436106100415760003560e01c8063256fa241146100465780638da5cb5b14610062578063fc0c546a14610080575b600080fd5b610060600480360381019061005b919061030a565b61009e565b005b61006a61021b565b60405161007791906103ab565b60405180910390f35b61008861023f565b6040516100959190610425565b60405180910390f35b60008054906101000a900473ffffffffffffffffffffffffffffffffffffffff1673ffffffffffffffffffffffffffffffffffffffff163373ffffffffffffffffffffffffffffffffffffffff161461012c576040517f08c379a00000000000000000000000000000000000000000000000000000000081526004016101239061049d565b60405180910390fd5b60005b8383905081101561021557600160009054906101000a900473ffffffffffffffffffffffffffffffffffffffff1673ffffffffffffffffffffffffffffffffffffffff1663a9059cbb85858481811061018b5761018a6104bd565b5b90506020020160208101906101a09190610518565b846040518363ffffffff1660e01b81526004016101be929190610554565b6020604051808303816000875af11580156101dd573d6000803e3d6000fd5b505050506040513d601f19601f8201168201806040525081019061020191906105b5565b50808061020d90610611565b91505061012f565b50505050565b60008054906101000a900473ffffffffffffffffffffffffffffffffffffffff1681565b600160009054906101000a900473ffffffffffffffffffffffffffffffffffffffff1681565b600080fd5b600080fd5b600080fd5b600080fd5b600080fd5b60008083601f8401126102945761029361026f565b5b8235905067ffffffffffffffff8111156102b1576102b0610274565b5b6020830191508360208202830111156102cd576102cc610279565b5b9250929050565b6000819050919050565b6102e7816102d4565b81146102f257600080fd5b50565b600081359050610304816102de565b92915050565b60008060006040848603121561032357610322610265565b5b600084013567ffffffffffffffff8111156103415761034061026a565b5b61034d8682870161027e565b93509350506020610360868287016102f5565b9150509250925092565b600073ffffffffffffffffffffffffffffffffffffffff82169050919050565b60006103958261036a565b9050919050565b6103a58161038a565b82525050565b60006020820190506103c0600083018461039c565b92915050565b6000819050919050565b60006103eb6103e66103e18461036a565b6103c6565b61036a565b9050919050565b60006103fd826103d0565b9050919050565b600061040f826103f2565b9050919050565b61041f81610404565b82525050565b600060208201905061043a6000830184610416565b92915050565b600082825260208201905092915050565b7f4e6f7420746865206f776e657200000000000000000000000000000000000000600082015250565b6000610487600d83610440565b915061049282610451565b602082019050919050565b600060208201905081810360008301526104b68161047a565b9050919050565b7f4e487b7100000000000000000000000000000000000000000000000000000000600052603260045260246000fd5b6104f58161038a565b811461050057600080fd5b50565b600081359050610512816104ec565b92915050565b60006020828403121561052e5761052d610265565b5b600061053c84828501610503565b91505092915050565b61054e816102d4565b82525050565b6000604082019050610569600083018561039c565b6105766020830184610545565b9392505050565b60008115159050919050565b6105928161057d565b811461059d57600080fd5b50565b6000815190506105af81610589565b92915050565b6000602082840312156105cb576105ca610265565b5b60006105d9848285016105a0565b91505092915050565b7f4e487b7100000000000000000000000000000000000000000000000000000000600052601160045260246000fd5b600061061c826102d4565b91507fffffffffffffffffffffffffffffffffffffffffffffffffffffffffffffffff820361064e5761064d6105e2565b5b60018201905091905056fea2646970667358221220c0ff8a3fd1c1cff89f546ed40801b0f1e954c6cbeeb167e0fe5c04a37944362c64736f6c63430008110033",
  "linkReferences": {},
  "deployedLinkReferences": {}
}