{
  "_format": "hh-sol-artifact-1",
  "contractName": "Token",
  "sourceName": "contracts/Token.sol",
  "abi": [
    {
      "inputs": [],
      "stateMutability": "nonpayable",
      "type": "constructor"
    },
    {
      "anonymous": false,
      "inputs": [
        {
          "indexed": true,
          "internalType": "address",
          "name": "userAddress",
          "type": "address"
        },
        {
          "indexed": false,
          "internalType": "uint256",
          "name": "taskId",
          "type": "uint256"
        },
        {
          "indexed": false,
          "internalType": "string",
          "name": "title",
          "type": "string"
        },
        {
          "indexed": false,
          "internalType": "string",
          "name": "description",
          "type": "string"
        },
        {
          "indexed": false,
          "internalType": "uint256",
          "name": "reward",
          "type": "uint256"
        },
        {
          "indexed": false,
          "internalType": "uint256",
          "name": "quantity",
          "type": "uint256"
        }
      ],
      "name": "TaskAdded",
      "type": "event"
    },
    {
      "anonymous": false,
      "inputs": [
        {
          "indexed": true,
          "internalType": "address",
          "name": "userAddress",
          "type": "address"
        },
        {
          "indexed": false,
          "internalType": "uint256",
          "name": "taskId",
          "type": "uint256"
        }
      ],
      "name": "TaskCompleted",
      "type": "event"
    },
    {
      "anonymous": false,
      "inputs": [
        {
          "indexed": true,
          "internalType": "address",
          "name": "_from",
          "type": "address"
        },
        {
          "indexed": true,
          "internalType": "address",
          "name": "_to",
          "type": "address"
        },
        {
          "indexed": false,
          "internalType": "uint256",
          "name": "_value",
          "type": "uint256"
        }
      ],
      "name": "Transfer",
      "type": "event"
    },
    {
      "inputs": [
        {
          "internalType": "string",
          "name": "title",
          "type": "string"
        },
        {
          "internalType": "string",
          "name": "description",
          "type": "string"
        },
        {
          "internalType": "uint256",
          "name": "reward",
          "type": "uint256"
        },
        {
          "internalType": "uint256",
          "name": "quantity",
          "type": "uint256"
        }
      ],
      "name": "addTask",
      "outputs": [],
      "stateMutability": "nonpayable",
      "type": "function"
    },
    {
      "inputs": [
        {
          "internalType": "address[]",
          "name": "_to",
          "type": "address[]"
        },
        {
          "internalType": "uint256",
          "name": "_amount",
          "type": "uint256"
        }
      ],
      "name": "airdrop",
      "outputs": [],
      "stateMutability": "nonpayable",
      "type": "function"
    },
    {
      "inputs": [
        {
          "internalType": "address",
          "name": "account",
          "type": "address"
        }
      ],
      "name": "balanceOf",
      "outputs": [
        {
          "internalType": "uint256",
          "name": "",
          "type": "uint256"
        }
      ],
      "stateMutability": "view",
      "type": "function"
    },
    {
      "inputs": [
        {
          "internalType": "uint256",
          "name": "taskId",
          "type": "uint256"
        }
      ],
      "name": "completeTask",
      "outputs": [],
      "stateMutability": "nonpayable",
      "type": "function"
    },
    {
      "inputs": [],
      "name": "name",
      "outputs": [
        {
          "internalType": "string",
          "name": "",
          "type": "string"
        }
      ],
      "stateMutability": "view",
      "type": "function"
    },
    {
      "inputs": [],
      "name": "owner",
      "outputs": [
        {
          "internalType": "address",
          "name": "",
          "type": "address"
        }
      ],
      "stateMutability": "view",
      "type": "function"
    },
    {
      "inputs": [],
      "name": "symbol",
      "outputs": [
        {
          "internalType": "string",
          "name": "",
          "type": "string"
        }
      ],
      "stateMutability": "view",
      "type": "function"
    },
    {
      "inputs": [],
      "name": "taskIdCounter",
      "outputs": [
        {
          "internalType": "uint256",
          "name": "",
          "type": "uint256"
        }
      ],
      "stateMutability": "view",
      "type": "function"
    },
    {
      "inputs": [],
      "name": "totalSupply",
      "outputs": [
        {
          "internalType": "uint256",
          "name": "",
          "type": "uint256"
        }
      ],
      "stateMutability": "view",
      "type": "function"
    },
    {
      "inputs": [
        {
          "internalType": "address",
          "name": "to",
          "type": "address"
        },
        {
          "internalType": "uint256",
          "name": "amount",
          "type": "uint256"
        }
      ],
      "name": "transfer",
      "outputs": [],
      "stateMutability": "nonpayable",
      "type": "function"
    },
    {
      "inputs": [
        {
          "internalType": "address",
          "name": "",
          "type": "address"
        },
        {
          "internalType": "uint256",
          "name": "",
          "type": "uint256"
        }
      ],
      "name": "userTasks",
      "outputs": [
        {
          "internalType": "string",
          "name": "title",
          "type": "string"
        },
        {
          "internalType": "string",
          "name": "description",
          "type": "string"
        },
        {
          "internalType": "uint256",
          "name": "reward",
          "type": "uint256"
        },
        {
          "internalType": "bool",
          "name": "completed",
          "type": "bool"
        },
        {
          "internalType": "uint256",
          "name": "id",
          "type": "uint256"
        },
        {
          "internalType": "uint256",
          "name": "quantity",
          "type": "uint256"
        }
      ],
      "stateMutability": "view",
      "type": "function"
    }
  ],
  "bytecode": "0x60806040526040518060400160405280600d81526020017f4c696e7578446f20546f6b656e00000000000000000000000000000000000000815250600090816200004a9190620003b3565b506040518060400160405280600381526020017f4c444f000000000000000000000000000000000000000000000000000000000081525060019081620000919190620003b3565b50620f42406002556000600655348015620000ab57600080fd5b50600254600460003373ffffffffffffffffffffffffffffffffffffffff1673ffffffffffffffffffffffffffffffffffffffff1681526020019081526020016000208190555033600360006101000a81548173ffffffffffffffffffffffffffffffffffffffff021916908373ffffffffffffffffffffffffffffffffffffffff1602179055506200049a565b600081519050919050565b7f4e487b7100000000000000000000000000000000000000000000000000000000600052604160045260246000fd5b7f4e487b7100000000000000000000000000000000000000000000000000000000600052602260045260246000fd5b60006002820490506001821680620001bb57607f821691505b602082108103620001d157620001d062000173565b5b50919050565b60008190508160005260206000209050919050565b60006020601f8301049050919050565b600082821b905092915050565b6000600883026200023b7fffffffffffffffffffffffffffffffffffffffffffffffffffffffffffffffff82620001fc565b620002478683620001fc565b95508019841693508086168417925050509392505050565b6000819050919050565b6000819050919050565b6000620002946200028e62000288846200025f565b62000269565b6200025f565b9050919050565b6000819050919050565b620002b08362000273565b620002c8620002bf826200029b565b84845462000209565b825550505050565b600090565b620002df620002d0565b620002ec818484620002a5565b505050565b5b81811015620003145762000308600082620002d5565b600181019050620002f2565b5050565b601f82111562000363576200032d81620001d7565b6200033884620001ec565b8101602085101562000348578190505b620003606200035785620001ec565b830182620002f1565b50505b505050565b600082821c905092915050565b6000620003886000198460080262000368565b1980831691505092915050565b6000620003a3838362000375565b9150826002028217905092915050565b620003be8262000139565b67ffffffffffffffff811115620003da57620003d962000144565b5b620003e68254620001a2565b620003f382828562000318565b600060209050601f8311600181146200042b576000841562000416578287015190505b62000422858262000395565b86555062000492565b601f1984166200043b86620001d7565b60005b8281101562000465578489015182556001820191506020850194506020810190506200043e565b8683101562000485578489015162000481601f89168262000375565b8355505b6001600288020188555050505b505050505050565b611f1680620004aa6000396000f3fe608060405234801561001057600080fd5b50600436106100a95760003560e01c806395d89b411161007157806395d89b411461016d578063a9059cbb1461018b578063ad8ef91c146101a7578063be1afc84146101c5578063c204642c146101e1578063e1e29558146101fd576100a9565b806306fdde03146100ae57806318160ddd146100cc57806366873a55146100ea57806370a082311461011f5780638da5cb5b1461014f575b600080fd5b6100b6610219565b6040516100c391906111cf565b60405180910390f35b6100d46102a7565b6040516100e1919061120a565b60405180910390f35b61010460048036038101906100ff91906112c3565b6102ad565b6040516101169695949392919061131e565b60405180910390f35b6101396004803603810190610134919061138d565b610423565b604051610146919061120a565b60405180910390f35b61015761046c565b60405161016491906113c9565b60405180910390f35b610175610492565b60405161018291906111cf565b60405180910390f35b6101a560048036038101906101a091906112c3565b610520565b005b6101af6106db565b6040516101bc919061120a565b60405180910390f35b6101df60048036038101906101da9190611519565b6106e1565b005b6101fb60048036038101906101f69190611680565b61093f565b005b610217600480360381019061021291906116dc565b610c20565b005b6000805461022690611738565b80601f016020809104026020016040519081016040528092919081815260200182805461025290611738565b801561029f5780601f106102745761010080835404028352916020019161029f565b820191906000526020600020905b81548152906001019060200180831161028257829003601f168201915b505050505081565b60025481565b600560205281600052604060002081815481106102c957600080fd5b9060005260206000209060060201600091509150508060000180546102ed90611738565b80601f016020809104026020016040519081016040528092919081815260200182805461031990611738565b80156103665780601f1061033b57610100808354040283529160200191610366565b820191906000526020600020905b81548152906001019060200180831161034957829003601f168201915b50505050509080600101805461037b90611738565b80601f01602080910402602001604051908101604052809291908181526020018280546103a790611738565b80156103f45780601f106103c9576101008083540402835291602001916103f4565b820191906000526020600020905b8154815290600101906020018083116103d757829003601f168201915b5050505050908060020154908060030160009054906101000a900460ff16908060040154908060050154905086565b6000600460008373ffffffffffffffffffffffffffffffffffffffff1673ffffffffffffffffffffffffffffffffffffffff168152602001908152602001600020549050919050565b600360009054906101000a900473ffffffffffffffffffffffffffffffffffffffff1681565b6001805461049f90611738565b80601f01602080910402602001604051908101604052809291908181526020018280546104cb90611738565b80156105185780601f106104ed57610100808354040283529160200191610518565b820191906000526020600020905b8154815290600101906020018083116104fb57829003601f168201915b505050505081565b80600460003373ffffffffffffffffffffffffffffffffffffffff1673ffffffffffffffffffffffffffffffffffffffff1681526020019081526020016000205410156105a2576040517f08c379a0000000000000000000000000000000000000000000000000000000008152600401610599906117b5565b60405180910390fd5b6105c6604051806060016040528060248152602001611ebd60249139338484610f0f565b80600460003373ffffffffffffffffffffffffffffffffffffffff1673ffffffffffffffffffffffffffffffffffffffff16815260200190815260200160002060008282546106159190611804565b9250508190555080600460008473ffffffffffffffffffffffffffffffffffffffff1673ffffffffffffffffffffffffffffffffffffffff168152602001908152602001600020600082825461066b9190611838565b925050819055508173ffffffffffffffffffffffffffffffffffffffff163373ffffffffffffffffffffffffffffffffffffffff167fddf252ad1be2c89b69c2b068fc378daa952ba7f163c4a11628f55a4df523b3ef836040516106cf919061120a565b60405180910390a35050565b60065481565b81600460003373ffffffffffffffffffffffffffffffffffffffff1673ffffffffffffffffffffffffffffffffffffffff168152602001908152602001600020541015610763576040517f08c379a000000000000000000000000000000000000000000000000000000000815260040161075a906118de565b60405180910390fd5b81600460003373ffffffffffffffffffffffffffffffffffffffff1673ffffffffffffffffffffffffffffffffffffffff16815260200190815260200160002060008282546107b29190611804565b925050819055506000600654905060006040518060c00160405280878152602001868152602001858152602001600015158152602001838152602001848152509050600560003373ffffffffffffffffffffffffffffffffffffffff1673ffffffffffffffffffffffffffffffffffffffff16815260200190815260200160002081908060018154018082558091505060019003906000526020600020906006020160009091909190915060008201518160000190816108729190611aaa565b5060208201518160010190816108889190611aaa565b506040820151816002015560608201518160030160006101000a81548160ff0219169083151502179055506080820151816004015560a082015181600501555050600660008154809291906108dc90611b7c565b91905055503373ffffffffffffffffffffffffffffffffffffffff167f8df5b48f890cdbd6dce37d65a2c58907ccc04ae2930d4322ddb6f3c4d8c20218838888888860405161092f959493929190611bc4565b60405180910390a2505050505050565b600360009054906101000a900473ffffffffffffffffffffffffffffffffffffffff1673ffffffffffffffffffffffffffffffffffffffff163373ffffffffffffffffffffffffffffffffffffffff16146109cf576040517f08c379a00000000000000000000000000000000000000000000000000000000081526004016109c690611c71565b60405180910390fd5b60005b8251811015610c1b578160046000600360009054906101000a900473ffffffffffffffffffffffffffffffffffffffff1673ffffffffffffffffffffffffffffffffffffffff1673ffffffffffffffffffffffffffffffffffffffff168152602001908152602001600020541015610a7f576040517f08c379a0000000000000000000000000000000000000000000000000000000008152600401610a7690611d03565b60405180910390fd5b8160046000600360009054906101000a900473ffffffffffffffffffffffffffffffffffffffff1673ffffffffffffffffffffffffffffffffffffffff1673ffffffffffffffffffffffffffffffffffffffff1681526020019081526020016000206000828254610af09190611804565b925050819055508160046000858481518110610b0f57610b0e611d23565b5b602002602001015173ffffffffffffffffffffffffffffffffffffffff1673ffffffffffffffffffffffffffffffffffffffff1681526020019081526020016000206000828254610b609190611838565b92505081905550828181518110610b7a57610b79611d23565b5b602002602001015173ffffffffffffffffffffffffffffffffffffffff16600360009054906101000a900473ffffffffffffffffffffffffffffffffffffffff1673ffffffffffffffffffffffffffffffffffffffff167fddf252ad1be2c89b69c2b068fc378daa952ba7f163c4a11628f55a4df523b3ef84604051610c00919061120a565b60405180910390a38080610c1390611b7c565b9150506109d2565b505050565b600560003373ffffffffffffffffffffffffffffffffffffffff1673ffffffffffffffffffffffffffffffffffffffff1681526020019081526020016000208181548110610c7157610c70611d23565b5b906000526020600020906006020160030160009054906101000a900460ff1615610cd0576040517f08c379a0000000000000000000000000000000000000000000000000000000008152600401610cc790611d9e565b60405180910390fd5b610d0f6040518060400160405280601881526020017f436f6d706c6574696e67207461736b20776974682049443a000000000000000081525082610fb1565b6001600560003373ffffffffffffffffffffffffffffffffffffffff1673ffffffffffffffffffffffffffffffffffffffff1681526020019081526020016000208281548110610d6257610d61611d23565b5b906000526020600020906006020160030160006101000a81548160ff0219169083151502179055506000600560003373ffffffffffffffffffffffffffffffffffffffff1673ffffffffffffffffffffffffffffffffffffffff1681526020019081526020016000208281548110610ddd57610ddc611d23565b5b906000526020600020906006020160020154905080600460003373ffffffffffffffffffffffffffffffffffffffff1673ffffffffffffffffffffffffffffffffffffffff1681526020019081526020016000206000828254610e409190611838565b92505081905550610ebd6040518060400160405280600881526020017f5265776172646564000000000000000000000000000000000000000000000000815250826040518060400160405280600981526020017f746f6b656e7320746f00000000000000000000000000000000000000000000008152503361104d565b3373ffffffffffffffffffffffffffffffffffffffff167ff684d89bb0f42287bf32838774e4b7f8a60c11804b3c6d1791fa55f30679264383604051610f03919061120a565b60405180910390a25050565b610fab84848484604051602401610f299493929190611dbe565b6040516020818303038152906040527f8ef3f399000000000000000000000000000000000000000000000000000000007bffffffffffffffffffffffffffffffffffffffffffffffffffffffff19166020820180517bffffffffffffffffffffffffffffffffffffffffffffffffffffffff83818316178352505050506110ef565b50505050565b6110498282604051602401610fc7929190611e0a565b6040516020818303038152906040527fb60e72cc000000000000000000000000000000000000000000000000000000007bffffffffffffffffffffffffffffffffffffffffffffffffffffffff19166020820180517bffffffffffffffffffffffffffffffffffffffffffffffffffffffff83818316178352505050506110ef565b5050565b6110e9848484846040516024016110679493929190611e3a565b6040516020818303038152906040527f7c4632a4000000000000000000000000000000000000000000000000000000007bffffffffffffffffffffffffffffffffffffffffffffffffffffffff19166020820180517bffffffffffffffffffffffffffffffffffffffffffffffffffffffff83818316178352505050506110ef565b50505050565b611106816110fe61110961112a565b63ffffffff16565b50565b60006a636f6e736f6c652e6c6f679050600080835160208501845afa505050565b611135819050919050565b61113d611e8d565b565b600081519050919050565b600082825260208201905092915050565b60005b8381101561117957808201518184015260208101905061115e565b60008484015250505050565b6000601f19601f8301169050919050565b60006111a18261113f565b6111ab818561114a565b93506111bb81856020860161115b565b6111c481611185565b840191505092915050565b600060208201905081810360008301526111e98184611196565b905092915050565b6000819050919050565b611204816111f1565b82525050565b600060208201905061121f60008301846111fb565b92915050565b6000604051905090565b600080fd5b600080fd5b600073ffffffffffffffffffffffffffffffffffffffff82169050919050565b600061126482611239565b9050919050565b61127481611259565b811461127f57600080fd5b50565b6000813590506112918161126b565b92915050565b6112a0816111f1565b81146112ab57600080fd5b50565b6000813590506112bd81611297565b92915050565b600080604083850312156112da576112d961122f565b5b60006112e885828601611282565b92505060206112f9858286016112ae565b9150509250929050565b60008115159050919050565b61131881611303565b82525050565b600060c08201905081810360008301526113388189611196565b9050818103602083015261134c8188611196565b905061135b60408301876111fb565b611368606083018661130f565b61137560808301856111fb565b61138260a08301846111fb565b979650505050505050565b6000602082840312156113a3576113a261122f565b5b60006113b184828501611282565b91505092915050565b6113c381611259565b82525050565b60006020820190506113de60008301846113ba565b92915050565b600080fd5b600080fd5b7f4e487b7100000000000000000000000000000000000000000000000000000000600052604160045260246000fd5b61142682611185565b810181811067ffffffffffffffff82111715611445576114446113ee565b5b80604052505050565b6000611458611225565b9050611464828261141d565b919050565b600067ffffffffffffffff821115611484576114836113ee565b5b61148d82611185565b9050602081019050919050565b82818337600083830152505050565b60006114bc6114b784611469565b61144e565b9050828152602081018484840111156114d8576114d76113e9565b5b6114e384828561149a565b509392505050565b600082601f830112611500576114ff6113e4565b5b81356115108482602086016114a9565b91505092915050565b600080600080608085870312156115335761153261122f565b5b600085013567ffffffffffffffff81111561155157611550611234565b5b61155d878288016114eb565b945050602085013567ffffffffffffffff81111561157e5761157d611234565b5b61158a878288016114eb565b935050604061159b878288016112ae565b92505060606115ac878288016112ae565b91505092959194509250565b600067ffffffffffffffff8211156115d3576115d26113ee565b5b602082029050602081019050919050565b600080fd5b60006115fc6115f7846115b8565b61144e565b9050808382526020820190506020840283018581111561161f5761161e6115e4565b5b835b8181101561164857806116348882611282565b845260208401935050602081019050611621565b5050509392505050565b600082601f830112611667576116666113e4565b5b81356116778482602086016115e9565b91505092915050565b600080604083850312156116975761169661122f565b5b600083013567ffffffffffffffff8111156116b5576116b4611234565b5b6116c185828601611652565b92505060206116d2858286016112ae565b9150509250929050565b6000602082840312156116f2576116f161122f565b5b6000611700848285016112ae565b91505092915050565b7f4e487b7100000000000000000000000000000000000000000000000000000000600052602260045260246000fd5b6000600282049050600182168061175057607f821691505b60208210810361176357611762611709565b5b50919050565b7f4e6f7420656e6f75676820746f6b656e73000000000000000000000000000000600082015250565b600061179f60118361114a565b91506117aa82611769565b602082019050919050565b600060208201905081810360008301526117ce81611792565b9050919050565b7f4e487b7100000000000000000000000000000000000000000000000000000000600052601160045260246000fd5b600061180f826111f1565b915061181a836111f1565b9250828203905081811115611832576118316117d5565b5b92915050565b6000611843826111f1565b915061184e836111f1565b9250828201905080821115611866576118656117d5565b5b92915050565b7f4e6f7420656e6f75676820746f6b656e7320746f20736574206173206120726560008201527f7761726400000000000000000000000000000000000000000000000000000000602082015250565b60006118c860248361114a565b91506118d38261186c565b604082019050919050565b600060208201905081810360008301526118f7816118bb565b9050919050565b60008190508160005260206000209050919050565b60006020601f8301049050919050565b600082821b905092915050565b6000600883026119607fffffffffffffffffffffffffffffffffffffffffffffffffffffffffffffffff82611923565b61196a8683611923565b95508019841693508086168417925050509392505050565b6000819050919050565b60006119a76119a261199d846111f1565b611982565b6111f1565b9050919050565b6000819050919050565b6119c18361198c565b6119d56119cd826119ae565b848454611930565b825550505050565b600090565b6119ea6119dd565b6119f58184846119b8565b505050565b5b81811015611a1957611a0e6000826119e2565b6001810190506119fb565b5050565b601f821115611a5e57611a2f816118fe565b611a3884611913565b81016020851015611a47578190505b611a5b611a5385611913565b8301826119fa565b50505b505050565b600082821c905092915050565b6000611a8160001984600802611a63565b1980831691505092915050565b6000611a9a8383611a70565b9150826002028217905092915050565b611ab38261113f565b67ffffffffffffffff811115611acc57611acb6113ee565b5b611ad68254611738565b611ae1828285611a1d565b600060209050601f831160018114611b145760008415611b02578287015190505b611b0c8582611a8e565b865550611b74565b601f198416611b22866118fe565b60005b82811015611b4a57848901518255600182019150602085019450602081019050611b25565b86831015611b675784890151611b63601f891682611a70565b8355505b6001600288020188555050505b505050505050565b6000611b87826111f1565b91507fffffffffffffffffffffffffffffffffffffffffffffffffffffffffffffffff8203611bb957611bb86117d5565b5b600182019050919050565b600060a082019050611bd960008301886111fb565b8181036020830152611beb8187611196565b90508181036040830152611bff8186611196565b9050611c0e60608301856111fb565b611c1b60808301846111fb565b9695505050505050565b7f4f6e6c79206f776e65722063616e20657865637574652061697264726f700000600082015250565b6000611c5b601e8361114a565b9150611c6682611c25565b602082019050919050565b60006020820190508181036000830152611c8a81611c4e565b9050919050565b7f4e6f7420656e6f75676820746f6b656e7320696e206f776e657227732061636360008201527f6f756e7400000000000000000000000000000000000000000000000000000000602082015250565b6000611ced60248361114a565b9150611cf882611c91565b604082019050919050565b60006020820190508181036000830152611d1c81611ce0565b9050919050565b7f4e487b7100000000000000000000000000000000000000000000000000000000600052603260045260246000fd5b7f5461736b20616c726561647920636f6d706c6574656400000000000000000000600082015250565b6000611d8860168361114a565b9150611d9382611d52565b602082019050919050565b60006020820190508181036000830152611db781611d7b565b9050919050565b60006080820190508181036000830152611dd88187611196565b9050611de760208301866113ba565b611df460408301856113ba565b611e0160608301846111fb565b95945050505050565b60006040820190508181036000830152611e248185611196565b9050611e3360208301846111fb565b9392505050565b60006080820190508181036000830152611e548187611196565b9050611e6360208301866111fb565b8181036040830152611e758185611196565b9050611e8460608301846113ba565b95945050505050565b7f4e487b7100000000000000000000000000000000000000000000000000000000600052605160045260246000fdfe5472616e7366657272696e672066726f6d20257320746f20257320257320746f6b656e73a26469706673582212204afb7d37d061bfd1163e4fa70791216e85aae9f7dfb6f4041d85de8d22ab29e264736f6c63430008110033",
  "linkReferences": {},
  "deployedLinkReferences": {}
}